:040000000DEF00F010
:04000800B3EF07F05B
:06001800FF002DEF09F0CE
:100E000000B2100000000000000000000000000020
:100E100000000000000000000000000000000000D2
:100E200000000000000000000038151C150015002F
:100E30000082140000000000007A15000000395004
:100E4000020D600EF324D96E050EF420DA6EDE6A10
:100E5000DD6A0201C7A72FEF07F031EF07F051EF6E
:100E600007F03950020D600EF324D96E050EF42000
:100E7000DA6E0501DF8219501A10D8B442EF07F07C
:100E800044EF07F051EF07F002D851EF07F00500EB
:100E9000FA6E1950FD6E1A50FE6EF850FF6EFA5041
:100EA00012000201C7A357EF07F059EF07F079EFDF
:100EB00007F03950020D600EF324D96E050EF420B0
:100EC000DA6E0501DF8417501810D8B46AEF07F006
:100ED0006CEF07F079EF07F002D879EF07F0050023
:100EE000FA6E1750FD6E1850FE6EF850FF6EFA50F5
:100EF0001200B6C24EF53928070B4F6E38504F1806
:100F0000D8A485EF07F087EF07F089EF07F094EF9B
:100F100007F0700E3924D96EDA6A050EDA224EC552
:100F2000DFF44FC539F5372A070E3918D8A49BEFDF
:100F300007F09DEF07F09EEF07F0396A115012108D
:100F4000D8B4A5EF07F0A7EF07F0B2EF07F0070E50
:100F50003918D8A4AEEF07F0B0EF07F0B2EF07F002
:100F6000396A376A1200FAC450F5FBC451F5AEA2D3
:100F7000BCEF07F0BEEF07F0D4EF07F0BAA2C3EF63
:100F800007F0C5EF07F0D4EF07F002D8D2EF07F073
:100F90000500FA6E2950FD6E2A50FE6EF850FF6E65
:100FA000FA50120003EF08F0AEA0D9EF07F0DBEF24
:100FB00007F0F1EF07F0BAA0E0EF07F0E2EF07F07B
:100FC000F1EF07F002D8EFEF07F00500FA6E2750B7
:100FD000FD6E2850FE6EF850FF6EFA50120003EFBF
:100FE00008F0ADAEF6EF07F0F8EF07F003EF08F00A
:100FF000B9AEFDEF07F0FFEF07F003EF08F0EFECFD
:1010000009F003EF08F051C5FBF450C5FAF41100E4
:101010000101406B416B426B0401026B0A6B126B66
:101020001A6B226B01014869F00E496F2F0E4A6F4F
:10103000080E4C6F040100690869070E106F070E57
:10104000206F016B096B116B196B216B03690B69C5
:101050007F0E136F1B69070E236F04690C697F0EE7
:10106000146F1C690F0E246F0201866B876B846BF3
:10107000856B150E726F150E176F110E0C6F120E19
:101080000B6F0F0E0A6F100E096F0401056B066BD4
:10109000076B3D6B3E6B3F6B0D6B0E6B0F6B156BF8
:1010A000166B176B1D6B1E6B1F6B256B266B276BEF
:1010B0001200AE903E0E276E0E0E286EAE92180EE7
:1010C000296E140E2A6E0201B66BB76BB86BB96B42
:1010D000BA6BBB6BBC6BBD6BBE6BBF6BB00EC06F36
:1010E000800EC16F280EC26F3F0EC36FC46B2E0EF1
:1010F000C56FC66B800EC76FC86BE60E526E150EBD
:10110000536E9CEC0AF0E40E526E150E536E8EEC8C
:101110000AF0000E526E000E536E80EC0AF0000EC4
:101120001C6E000E1B6E3C6A3B6A080E3A6E396AF2
:10113000386A376AAE801200586E5850566E576A39
:10114000D89056365736D89056365736000E562415
:10115000D96E060E5720DA6E52C5DFF45850040DD2
:10116000010EF324D96E060EF420DA6E53C5DFF4B7
:101170005850040D020EF324D96E060EF420DA6ED8
:1011800054C5DFF45850040D030EF324D96E060E37
:10119000F420DA6E55C5DFF412006F6A020E706E2D
:1011A000716A7F0E726E0C0E736E746A756A766A5F
:1011B000776A796A400E7A6E060E7B6E400E7C6E00
:1011C000060E7D6EBB9CBB9E76907692AF9EAF9CCA
:1011D000000E526E000E536EC7EC0AF0000E526EF7
:1011E000000E536EC2EC0AF0000E526E000E536EEB
:1011F000CCEC0AF0800E786E1200606A020E616E0E
:10120000626A7F0E636E0C0E646E656A666A676A58
:10121000686A6A6A400E6B6E060E6C6E400E6D6EEA
:10122000060E6E6EBA9CBA9E67906792AE9EAE9C9A
:10123000000E526E000E536ED6EC0AF0000E526E87
:10124000000E536ED1EC0AF0000E526E000E536E7B
:10125000DBEC0AF0800E696E12006E0EF66E150E53
:10126000F76E000EF86E01EE42F110EE0CF0090080
:10127000F5C4EEF4E550E150FAE101EE00F2900E13
:10128000EE6AE806FDE101EE60F1180EEE6AE8068E
:10129000FDE101EE01F1410EEE6AE806FDE1040117
:1012A000080E5D6F000E5E6F000E5F6F000EF86E31
:1012B0000001AAEF09F00201C051F00B0A09C06F4A
:1012C000C09BC089C29DC251CF0B2009C26F0E0EB8
:1012D000C86F200EC56F000EBB6F000EBA6F000EF8
:1012E000BD6F080EBC6F000EBF6F0B0EBE6FC08FC0
:1012F000000EC46F3F0EC36F01014A8B150E020131
:10130000726FC18FAE84120009C579F50AC57AF5EE
:101310000BC57BF50CC57CF53EC579F53FC57AF567
:1013200040C57BF50501786B79C552F57AC553F553
:101330007BC554F57CC555F578519CEC08F005014A
:10134000782B230E7865A7EF09F0A9EF09F094EF49
:1013500009F012000DC578F50EC579F50FC57AF5BF
:1013600010C57BF559EC0AF06FEC0AF05BEC09F064
:10137000CEEC09F0D68E01015299C1EF09F084EC50
:1013800009F03D50010AD8B4BFEF09F0030AD8B400
:10139000BFEF09F0C1EF09F00DEF00F00001E76BBE
:1013A000B60EF86F020EF96F000EFA6F050EF06FB1
:1013B0003D0EEF6FE70EFC17F90EFC17FC513F0BCB
:1013C0004009FC6F000EF76F010EF66F000EEE6F16
:1013D000050EED6F200EFE6FFB8DFB8F1200B99E88
:1013E00020500301196F1FC518F31D501E10D8B4EB
:1013F000FCEF09F0FEEF09F00BEF0AF002D80BEF5B
:101400000AF00500FA6E1D50FD6E1E50FE6EF8507B
:10141000FF6EFA5012001200080E3A6012EF0AF046
:1014200014EF0AF025EF0AF0010E3B24D96EDA6AB8
:10143000050EDA22DF500201B86F3B28070B4E6E13
:101440004EC53BF53A2A26EF0AF0AE921200D69A24
:10145000B790D680000E526E000E536EEAEC0AF082
:10146000BC90D682000E526E000E536EE5EC0AF070
:10147000C090D684000E526E000E536EE0EC0AF05F
:101480001200060E0301196F186B700E1B6F1951B5
:10149000546E18511F6E54C520F5E80E526E150E8D
:1014A000536EBDEC0AF0B99EAD8E900E03011A6F1B
:1014B0001200596A78C552F579C553F57AC554F5C5
:1014C0007BC555F559509CEC08F0592A230E5964F8
:1014D0006CEF0AF06EEF0AF05AEF0AF01200AAEC75
:1014E0000AF008EC08F0FDEC08F0CDEC08F041EC57
:1014F0000AF059EC08F0EFEC0AF027EC0AF01200C1
:1015000052505310D8B487EF0AF089EF0AF08DEFEC
:101510000AF052C515F553C516F512005250531076
:10152000D8B495EF0AF097EF0AF09BEF0AF052C596
:1015300017F553C518F5120052505310D8B4A3EF45
:101540000AF0A5EF0AF0A9EF0AF052C519F553C544
:101550001AF51200600E0001AD6F400EAF6FB36B55
:10156000080EB16FB06BAC6B0401586B1200646471
:101570000000640000000064000052C51DF553C562
:101580001EF5120052C52DF553C52EF5120052C599
:101590002FF553C530F5120052C52BF553C52CF568
:1015A000120052C533F553C534F5120052C535F556
:1015B00053C536F5120052C531F553C532F5120048
:1015C00052C521F553C522F5120052C523F553C566
:1015D00024F5120052C525F553C526F51200010168
:0A15E0000D6B120012001200120041
:020000040030CA
:0700000086FFF7FF9FFF1FC1
:03000800FFFFFFF8
:02001800FFFFE8
:01001C00FFE4
:00000001FF
