:040000000DEF00F010
:040008003BEF09F0D1
:06001800FF001EEF0AF0DC
:100E000000B6130000000000000000000000000019
:100E100000000000000000000000000000000000D2
:100E2000000000000000000000F816DC16C01600EC
:100E30000068160000000000006E170000004CC59E
:100E40004FF54BC550F54DC551F5320E4F18D8A48E
:100E50002CEF07F02EEF07F041EF07F0320E506055
:100E600034EF07F036EF07F041EF07F05150D8A408
:100E70003CEF07F03EEF07F041EF07F04B2AD3EFCE
:100E800007F0320E5018D8A448EF07F04AEF07F0E9
:100E90005DEF07F04F50D8B450EF07F052EF07F076
:100EA0005DEF07F05150D8A458EF07F05AEF07F064
:100EB0005DEF07F04C06D3EF07F0320E5018D8A4C0
:100EC00064EF07F066EF07F079EF07F0320E51603C
:100ED0006CEF07F06EEF07F079EF07F04F50D8A4F2
:100EE00074EF07F076EF07F079EF07F04D2AD3EFB4
:100EF00007F0320E5118D8A480EF07F082EF07F008
:100F000095EF07F05050D8B488EF07F08AEF07F05C
:100F100095EF07F04F50D8A490EF07F092EF07F04D
:100F200095EF07F04B06D3EF07F0320E5118D8A417
:100F30009CEF07F09EEF07F0B1EF07F0320E4F6025
:100F4000A4EF07F0A6EF07F0B1EF07F05050D8A4D8
:100F5000ACEF07F0AEEF07F0B1EF07F04C2AD3EF9C
:100F600007F0320E4F18D8A4B8EF07F0BAEF07F029
:100F7000CDEF07F05150D8B4C0EF07F0C2EF07F043
:100F8000CDEF07F05050D8A4C8EF07F0CAEF07F034
:100F9000CDEF07F04D06D3EF07F04C6A4B6A320EE7
:100FA0004D6E320E4E6E4BC54BF54CC54CF54DC5D6
:100FB0004DF54EC54EF51200526A010E0501686FDF
:100FC000522A030E2F60E7EF07F0E9EF07F0ECEF8E
:100FD00007F02F2A5DEF08F0536A5350040D910E6D
:100FE000F324D96E050EF420DA6EDEC44BF5DEC4B0
:100FF0004CF5DEC44DF5DEC44EF51FEC07F0535042
:10100000040D910EF324D96E050EF420DA6E4BC553
:10101000DEF44CC5DEF44DC5DEF44EC5DEF45350AF
:10102000040D910EF324D96E050EF420DA6E680ECD
:101030005224E16EE26A050EE222DFC4E7F4522A8E
:101040005350040D920EF324D96E050EF420DA6E7F
:10105000680E5224E16EE26A050EE222DFC4E7F474
:10106000522A5350040D930EF324D96E050EF4202A
:10107000DA6E680E5224E16EE26A050EE222DFC4E7
:10108000E7F4522A5350040D940EF324D96E050E42
:10109000F420DA6E680E5224E16EE26A050EE22256
:1010A000DFC4E7F4522A532A090E53645AEF08F0BA
:1010B0005CEF08F0EDEF07F02F6A12003350020DDD
:1010C000010EF324D96E050EF420DA6EDE6ADD6AB5
:1010D0000201C7A76EEF08F070EF08F08FEF08F07D
:1010E0003350020D010EF324D96E050EF420DA6E92
:1010F000DF8221502210D8B480EF08F082EF08F090
:101100008FEF08F002D88FEF08F00500FA6E21503B
:10111000FD6E2250FE6EF850FF6EFA501200020172
:10112000C7A395EF08F097EF08F0B6EF08F033503B
:10113000020D010EF324D96E050EF420DA6EDF8461
:101140001F502010D8B4A7EF08F0A9EF08F0B6EFB1
:1011500008F002D8B6EF08F00500FA6E1F50FD6ED9
:101160002050FE6EF850FF6EFA501200B6C247F5DE
:101170003328070B486E32504818D8A4C2EF08F045
:10118000C4EF08F0C6EF08F0D1EF08F0600E33248A
:10119000D96EDA6A050EDA2247C5DFF448C533F5A1
:1011A000312A12008AEC0BF08AEC0AF0B7EC0AF054
:1011B000D68E01015289020E0501B96F000E0101A0
:1011C00050B5010E2D6E2DC52EF5000E010150B546
:1011D000010E2D6E2D50D8A4F0EF08F0F2EF08F0BC
:1011E00035EF09F02E04D8A4F8EF08F0FAEF08F074
:1011F00035EF09F013EF09F0DCEC07F029EF09F007
:1012000056EC0AF0FF0E0101511B520E556E2B0ECB
:10121000546E000EE82EFED7542EFCD7552EFAD76A
:1012200000D029EF09F00501B951546E556A5550A7
:10123000000AD8B41EEF09F029EF09F05450010A52
:10124000D8B4FCEF08F0030AD8B400EF09F029EF96
:1012500009F00001FBBB2FEF09F031EF09F035EF8A
:1012600009F0A4EC0BF00001FB8D2DC52EF5E5EF88
:1012700008F00DEF00F0FAC449F5FBC44AF5ADAE35
:1012800044EF09F046EF09F051EF09F0B9AE4BEF2A
:1012900009F04DEF09F051EF09F0E2EC0AF08BEFA5
:1012A00009F0AEA256EF09F058EF09F06EEF09F021
:1012B000BAA25DEF09F05FEF09F06EEF09F002D816
:1012C0006CEF09F00500FA6E5A50FD6E5B50FE6E31
:1012D000F850FF6EFA5012008BEF09F0AEA073EFDA
:1012E00009F075EF09F08BEF09F0BAA07AEF09F079
:1012F0007CEF09F08BEF09F002D889EF09F00500C7
:10130000FA6E5850FD6E5950FE6EF850FF6EFA504E
:1013100012008BEF09F04AC5FBF449C5FAF411003D
:101320000101406B416B426B0401026B0A6B126B53
:101330001A6B226B01014869F30E496F2F0E4A6F39
:10134000080E4C6FFB0E0401006FF30E086F070EC2
:10135000106F070E206F016B096B116B196B216BFE
:1013600003690B697F0E136F1B69070E236F0469F6
:101370000C697F0E146F1C690F0E246F0201866BBF
:10138000876B846B856B150E726F150E176F0401DA
:10139000056B066B076B3D6B3E6B3F6B0D6B0E6B0E
:1013A0000F6B156B166B176B1D6B1E6B1F6B256B15
:1013B000266B276B1200AE90BC0E586E100E596E45
:1013C000AE92FE0E5A6E150E5B6E0201B66BB76BD7
:1013D000B86BB96BBA6BBB6BBC6BBD6BBE6BBF6BD9
:1013E000B00EC06F800EC16F280EC26F3F0EC36F6C
:1013F000C46B2E0EC56FC66B800EC76FC86B9E0E7A
:101400004B6E170E4C6E7CEC0BF09C0E4B6E170E59
:101410004C6E6EEC0BF0000E4B6E000E4C6E60ECE2
:101420000BF0000E246E000E236E366A356A080E2D
:10143000346E336A326A316AAE801200980EF66EEC
:10144000160EF76E000EF86E01EE91F110EE28F018
:101450000900F5C4EEF4E550E150FAE15E0EF66ED7
:10146000170EF76E000EF86E01EE37F110EE10F069
:101470000900F5C4EEF4E550E150FAE101EE60F147
:10148000310EEE6AE806FDE101EE01F1360EEE6A7C
:10149000E806FDE10401080E5D6F000E5E6F000EB0
:1014A0005F6F000EF86E0001D2EF08F04C6A010E7B
:1014B0000501686F4C2A4B6A680E4C24D96EDA6AB3
:1014C000050EDA224BC5DFF44C2A680E4C24D96E87
:1014D000DA6A050EDA224BC5DFF44C2A680E4C247A
:1014E000D96EDA6A050EDA224BC5DFF44C2A680E93
:1014F0004C24D96EDA6A050EDA224BC5DFF44C2A89
:101500004B2A090E4B6487EF0AF089EF0AF05CEF73
:101510000AF012000201C051F00B0A09C06FC08B23
:10152000C099C295C251CF0B2009C26FC76BC86B5F
:10153000C66B010EC56F000EBB6F270EBA6F000E93
:10154000BD6F000EBC6F000EBF6F000EBE6FC08F70
:10155000000EC46F3F0EC36FB66BB86B01014A9D9E
:10156000150E0201176FC18FB96BB76B1200000126
:10157000E76B680EF86F050EF96F000EFA6F020E3A
:10158000F06FB80EEF6FE70EFC17FC81FC51F90B02
:101590000209FC6F3F0EFC17000EF76F290EF66F65
:1015A000000EEE6F010EED6F210EFE6FD69E070E40
:1015B000B66F550EB46FAA0EB46FB481D68EFB8D84
:1015C000FB8F1200B99E26500301196F25C518F331
:1015D00056505710D8B4EFEF0AF0F1EF0AF0FEEFD3
:1015E0000AF002D8FEEF0AF00500FA6E5650FD6EC2
:1015F0005750FE6EF850FF6EFA5012001200080E9F
:10160000346005EF0BF007EF0BF018EF0BF0110E45
:101610003524D96EDA6A050EDA22DF500201B86F7E
:101620003528070B476E47C535F5342A19EF0BF0FF
:10163000AE921200D69AB790D680000E4B6E000E76
:101640004C6EC6EC0BF0BC90D682000E4B6E000EBA
:101650004C6EC1EC0BF0C090D684000E4B6E000EA9
:101660004C6EBCEC0BF01200060E0301196F186BE8
:10167000700E1B6F19514D6E1851256E4DC526F514
:10168000A00E4B6E170E4C6EB7EC0BF0B99EAD8EE4
:10169000900E03011A6F1200003200002A3200007F
:1016A000320D000032001C001C003200000D320020
:1016B00000322A00000000000000000000000000CE
:1016C0004B504C10D8B467EF0BF069EF0BF06DEF97
:1016D0000BF04BC51DF54CC51EF512004B504C10C0
:1016E000D8B475EF0BF077EF0BF07BEF0BF04BC539
:1016F0001FF54CC520F512004B504C10D8B483EFA9
:101700000BF085EF0BF089EF0BF04BC521F54CC5C5
:1017100022F5120097EC0BF090EC09F034EC0BF092
:10172000DBEC09F0CBEC0BF01AEC0BF01200600EC6
:101730000001AD6F400EAF6FB36B080EB16FB06BB1
:10174000AC6B0401586B12000201C09BC0BBABEF35
:101750000BF0ADEF0BF0A6EF0BF0C08B12000032D8
:1017600000006400000064640000006400004BC5D9
:1017700056F54CC557F512004BC527F54CC528F555
:1017800012004BC529F54CC52AF512004BC52BF5A7
:101790004CC52CF5120001010D6B12001200120055
:0217A000120035
:020000040030CA
:0700000086FFF7FC9FFF1FC4
:03000800FFFFFFF8
:02001800FFFFE8
:01001C00FFE4
:00000001FF
