:040000000DEF00F010
:0400080048EF09F0C4
:06001800FF002BEF0AF0CF
:100E000000D01300000000000000000000000000FF
:100E100000000000000000000000000000000000D2
:100E20000000000000000000001217F616DA16009D
:100E300000821600000000000088170000004EC568
:100E400051F54DC552F54FC553F5320E5118D8A482
:100E50002CEF07F02EEF07F041EF07F0320E526053
:100E600034EF07F036EF07F041EF07F05350D8A406
:100E70003CEF07F03EEF07F041EF07F04D2AD3EFCC
:100E800007F0320E5218D8A448EF07F04AEF07F0E7
:100E90005DEF07F05150D8B450EF07F052EF07F074
:100EA0005DEF07F05350D8A458EF07F05AEF07F062
:100EB0005DEF07F04E06D3EF07F0320E5218D8A4BC
:100EC00064EF07F066EF07F079EF07F0320E53603A
:100ED0006CEF07F06EEF07F079EF07F05150D8A4F0
:100EE00074EF07F076EF07F079EF07F04F2AD3EFB2
:100EF00007F0320E5318D8A480EF07F082EF07F006
:100F000095EF07F05250D8B488EF07F08AEF07F05A
:100F100095EF07F05150D8A490EF07F092EF07F04B
:100F200095EF07F04D06D3EF07F0320E5318D8A413
:100F30009CEF07F09EEF07F0B1EF07F0320E516023
:100F4000A4EF07F0A6EF07F0B1EF07F05250D8A4D6
:100F5000ACEF07F0AEEF07F0B1EF07F04E2AD3EF9A
:100F600007F0320E5118D8A4B8EF07F0BAEF07F027
:100F7000CDEF07F05350D8B4C0EF07F0C2EF07F041
:100F8000CDEF07F05250D8A4C8EF07F0CAEF07F032
:100F9000CDEF07F04F06D3EF07F04E6A4D6A320EE1
:100FA0004F6E320E506E4DC54DF54EC54EF54FC5C8
:100FB0004FF550C550F51200546A010E0501686FD7
:100FC000542A030E3160E7EF07F0E9EF07F0ECEF8A
:100FD00007F0312A5DEF08F0556A5550040D910E67
:100FE000F324D96E050EF420DA6EDEC44DF5DEC4AE
:100FF0004EF5DEC44FF5DEC450F51FEC07F055503A
:10100000040D910EF324D96E050EF420DA6E4DC551
:10101000DEF44EC5DEF44FC5DEF450C5DEF45550A7
:10102000040D910EF324D96E050EF420DA6E680ECD
:101030005424E16EE26A050EE222DFC4E7F4542A8A
:101040005550040D920EF324D96E050EF420DA6E7D
:10105000680E5424E16EE26A050EE222DFC4E7F472
:10106000542A5550040D930EF324D96E050EF42026
:10107000DA6E680E5424E16EE26A050EE222DFC4E5
:10108000E7F4542A5550040D940EF324D96E050E3E
:10109000F420DA6E680E5424E16EE26A050EE22254
:1010A000DFC4E7F4542A552A090E55645AEF08F0B4
:1010B0005CEF08F0EDEF07F0316A120097EC0BF0EF
:1010C00097EC0AF0C4EC0AF0D68E01015289020EA8
:1010D0000501BB6F000E010150B5010E2F6E2FC52B
:1010E00030F5000E010150B5010E2F6E50B57BEFAB
:1010F00008F07DEF08F0BFEF08F08AEF08F0DCECB5
:1011000007F0A0EF08F063EC0AF0FF0E0101511B9D
:10111000A0EF08F00501BB51B96FBA6BBA51000AD4
:10112000D8B495EF08F0A0EF08F0B951010AD8B48F
:101130007FEF08F0030AD8B483EF08F0A0EF08F0BF
:101140000001FBBBA6EF08F0A8EF08F0ACEF08F039
:10115000B1EC0BF00001FB8D010E1924196E000E8D
:101160001A201A6E520E0501BA6F2B0EB96F000EBF
:10117000E82EFED7B92FFCD7BA2FFAD700001ABE37
:10118000CAEF08F01A5008E11928D8A0CAEF08F0F1
:10119000CCEF08F071EF08F0000E1A6E000E196E19
:1011A00071EF08F00DEF00F03550020D010EF32441
:1011B000D96E050EF420DA6EDE6ADD6A0201C7A779
:1011C000E4EF08F0E6EF08F005EF09F03550020D06
:1011D000010EF324D96E050EF420DA6EDF8223505F
:1011E0002410D8B4F6EF08F0F8EF08F005EF09F096
:1011F00002D805EF09F00500FA6E2350FD6E245069
:10120000FE6EF850FF6EFA5012000201C7A30BEFFA
:1012100009F00DEF09F02CEF09F03550020D010E29
:10122000F324D96E050EF420DA6EDF8421502210EB
:10123000D8B41DEF09F01FEF09F02CEF09F002D828
:101240002CEF09F00500FA6E2150FD6E2250FE6E63
:10125000F850FF6EFA501200B6C249F53528070B58
:101260004A6E34504A18D8A438EF09F03AEF09F022
:101270003CEF09F047EF09F0600E3524D96EDA6AC9
:10128000050EDA2249C5DFF44AC535F5332A1200C6
:10129000FAC44BF5FBC44CF5ADAE51EF09F053EF7A
:1012A00009F05EEF09F0B9AE58EF09F05AEF09F016
:1012B0005EEF09F0EFEC0AF098EF09F0AEA263EFF1
:1012C00009F065EF09F07BEF09F0BAA26AEF09F0C7
:1012D0006CEF09F07BEF09F002D879EF09F0050017
:1012E000FA6E5A50FD6E5B50FE6EF850FF6EFA506B
:1012F000120098EF09F0AEA080EF09F082EF09F03C
:1013000098EF09F0BAA087EF09F089EF09F098EF9C
:1013100009F002D896EF09F00500FA6E5850FD6EFC
:101320005950FE6EF850FF6EFA50120098EF09F017
:101330004CC5FBF44BC5FAF411000101406B416B45
:10134000426B0401026B0A6B126B1A6B226B010178
:101350004869F30E496F2F0E4A6F080E4C6FFB0E53
:101360000401006FF30E086F070E106F070E206F59
:10137000016B096B116B196B216B03690B697F0E94
:10138000136F1B69070E236F04690C697F0E146FBE
:101390001C690F0E246F0201866B876B846B856B53
:1013A000150E726F150E176F0401056B066B076B38
:1013B0003D6B3E6B3F6B0D6B0E6B0F6B156B166BC6
:1013C000176B1D6B1E6B1F6B256B266B276B12003B
:1013D000AE90A80E586E110E596EAE92180E5A6E3F
:1013E000160E5B6E0201B66BB76BB86BB96BBA6B5E
:1013F000BB6BBC6BBD6BBE6BBF6BB00EC06F800EAA
:10140000C16F280EC26F3F0EC36FC46B2E0EC56F27
:10141000C66B800EC76FC86BB80E4D6E170E4E6E42
:1014200089EC0BF0B60E4D6E170E4E6E7BEC0BF08A
:10143000000E4D6E000E4E6E6DEC0BF0000E266E23
:10144000000E256E386A376A080E366E356A346AC1
:10145000336AAE801200B20EF66E160EF76E000EF4
:10146000F86E01EE91F110EE28F00900F5C4EEF4EB
:10147000E550E150FAE1780EF66E170EF76E000EA9
:10148000F86E01EE39F110EE10F00900F5C4EEF43B
:10149000E550E150FAE101EE60F1310EEE6AE80646
:1014A000FDE101EE01F1380EEE6AE806FDE104010E
:1014B000080E5D6F000E5E6F000E5F6F000EF86E1F
:1014C00000015EEF08F04E6A010E0501686F4E2ABA
:1014D0004D6A680E4E24D96EDA6A050EDA2219C5F5
:1014E000DFF44E2A680E4E24D96EDA6A050EDA222F
:1014F00019C5DFF44E2A680E4E24D96EDA6A050E3D
:10150000DA2219C5DFF44E2A680E4E24D96EDA6A43
:10151000050EDA2219C5DFF44E2A4D2A090E4D6454
:1015200094EF0AF096EF0AF069EF0AF01200020158
:10153000C051F00B0A09C06FC08BC099C295C2514F
:10154000CF0B2009C26FC76BC86BC66B010EC56F8E
:10155000000EBB6F270EBA6F000EBD6F000EBC6F82
:10156000000EBF6F000EBE6FC08F000EC46F3F0E27
:10157000C36FB66BB86B01014A9D150E0201176F60
:10158000C18FB96BB76B12000001E76B680EF86F83
:10159000050EF96F000EFA6F020EF06FB80EEF6FC6
:1015A000E70EFC17FC81FC51F90B0209FC6F3F0EA2
:1015B000FC17000EF76F290EF66F000EEE6F010E8E
:1015C000ED6F210EFE6FD69E070EB66F550EB46FEF
:1015D000AA0EB46FB481D68EFB8DFB8F1200B99E1C
:1015E00028500301196F27C518F356505710D8B467
:1015F000FCEF0AF0FEEF0AF00BEF0BF002D80BEF56
:101600000BF00500FA6E5650FD6E5750FE6EF85006
:10161000FF6EFA5012001200080E366012EF0BF047
:1016200014EF0BF025EF0BF0110E3724D96EDA6AA8
:10163000050EDA22DF500201B86F3728070B496E1A
:1016400049C537F5362A26EF0BF0AE921200D69A2E
:10165000B790D680000E4D6E000E4E6ED3EC0BF0A0
:10166000BC90D682000E4D6E000E4E6ECEEC0BF08E
:10167000C090D684000E4D6E000E4E6EC9EC0BF07D
:101680001200060E0301196F186B700E1B6F1951B3
:101690004F6E1851276E4FC528F5BA0E4D6E170EB6
:1016A0004E6EC4EC0BF0B99EAD8E900E03011A6F16
:1016B0001200003200002A320000320D0000320019
:1016C0001C001C003200000D320000322A00000015
:1016D000000000000000000000004D504E10D8B483
:1016E00074EF0BF076EF0BF07AEF0BF04DC51FF5B2
:1016F0004EC520F512004D504E10D8B482EF0BF0BD
:1017000084EF0BF088EF0BF04DC521F54EC522F5A7
:1017100012004D504E10D8B490EF0BF092EF0BF03A
:1017200096EF0BF04DC523F54EC524F51200A4EC41
:101730000BF09DEC09F041EC0BF0E8EC09F0D8EC73
:101740000BF027EC0BF01200600E0001AD6F400EA5
:10175000AF6FB36B080EB16FB06BAC6B0401586B1D
:1017600012000201C09BC0BBB8EF0BF0BAEF0BF048
:10177000B3EF0BF0C08B12000032000064000000D9
:1017800064640000006400004DC556F54EC557F571
:1017900012004DC529F54EC52AF512004DC52BF591
:1017A0004EC52CF512004DC52DF54EC52EF5120077
:0C17B00001010D6B12001200120012006B
:020000040030CA
:0700000086FFF7FC9FFF1FC4
:03000800FFFFFFF8
:02001800FFFFE8
:01001C00FFE4
:00000001FF
